:040000006CEF7FF032
:10FED000D388D38AD38C1200096A0001B0EF7FF077
:10FEE00068EC7FF082EC7FF092EC7FF0F28CF28E87
:10FEF0001200016E72AC03D0729009B2728001C020
:10FF000073FF1200000E0F01386F000E0F01396FE2
:10FF1000000E0F013A6F938E939C0F0139979396C1
:10FF200081961200000E066E000E056E000E046E25
:10FF3000939C938E1C0E066E000E056E330E046E9F
:10FF40004F0E7116729ACF0EA31604C001F005C0B1
:10FF500002F00650D6EC7FF0A58AA38AA49A12007C
:10FF600070EC7FF0000E086E320E086401D00AD0EB
:10FF7000680E076EE40EE82EFED7072EFCD700D0E1
:10FF8000082AF2D781B603D0076A072A01D0076A88
:10FF900007460746074681500718F70B0718816E7A
:10FFA00072A2FED70A0E79EC7FF0DCD7036E000E4A
:10FFB000726E000E716E03B0728803A202D0728C52
:10FFC000718C03B4728E03A602D0718801D0718A3D
:10FFD00003A802D0728401D0729403BA718603AC74
:10FFE00002D0A38A01D0A39A03AE02D0A38801D085
:10FFF000A39801C075FF0250766E728A718E12004E
:020000040030CA
:0E000000FF331F3CFFBF85FF0FC00FE00F4016
:00000001FF
