:0400000049EF00F0D4
:100008002382FACF07F0FBCF08F0E9CF09F0EACF57
:100018000AF0E1CF0BF0E2CF0CF0D9CF0DF0DACF38
:100028000EF0F3CF0FF0F4CF10F0F6CF11F0F7CFBA
:1000380012F0F8CF13F0F5CF14F0A4BAA3AA07D0A2
:1000480071A202D07198718879EC00F0A49A14C05A
:10005800F5FF13C0F8FF12C0F7FF11C0F6FF10C07C
:10006800F4FF0FC0F3FF0EC0DAFF0DC0D9FF0CC0BC
:10007800E2FF0BC0E1FF0AC0EAFF09C0E9FF08C0C0
:10008800FBFF07C0FAFF23921100EEEF00F027EC08
:1000980001F0000E1C6E320E1C6401D00AD0680EEE
:1000A8001B6EE40EE82EFED71B2EFCD700D01C2AB0
:1000B800F2D781B603D01B6A1B2A01D01B6A1B46E4
:1000C8001B461B4681501B18F70B1B18816E72A22A
:1000D800FED70A0E1EEC01F01F50D8B4DAD772A270
:1000E800FED720501EEC01F0D4D72250010D600E2F
:1000F800F324D96E000EF420DA6E0FEC01F0DF6EF7
:10010800020E2218D8B462C020F02050026E036A92
:10011800030E0226000E03222250046E056A0250C6
:10012800045C0550800A066E0350800A0658D8A061
:1001380007D0000E226E1D4A1E2A010E1F6E1200E5
:10014800222A1200176E000E726E000E716E17B022
:10015800728817A202D0728C718C17B4728E17A68F
:1001680002D0718801D0718A17A802D0728401D098
:10017800729417BA718617AC02D0A38A01D0A39AD9
:1001880017AE02D0A38801D0A39815C075FF1650EA
:10019800766E728A718E1200000E1A6E000E196E3B
:1001A800000E186E939C938E1C0E1A6E000E196E1C
:1001B800330E186E4F0E7116729ACF0EA31618C012
:1001C80015F019C016F01A50A6EC00F0A58AA38AFB
:1001D800A49A120000EE60F0500EEE6AE806FDE107
:1001E800226A216A206A1F6A1E6A1D6A2390239266
:1001F80000014BEF00F0000E0F01386F000E0F01E9
:10020800396F000E0F013A6F938E939C0F01399747
:10021800939681961200F20E211671AC03D02190AC
:1002280071B0218071B4218471B2218674CF01F03C
:1002380001501200156E72AC03D0729021B2728018
:1002480015C073FF120030EC01F0FFEC00F0D0ECA9
:1002580000F0F28CF28E1200D388D38AD38C12006D
:020000040030CA
:0E000000FF331F3CFFBF85FF0FC00FE00F4016
:00000001FF
